:1000000071C000000C941A0806C2000089C10000EB
:100010005CC2000087C0000085C0000083C00000F3
:1000200081C000007FC000007DC000007BC00000D8
:1000300079C0000077C0000075C0000073C00000E8
:1000400071C000006FC000006DC000006BC00000F8
:1000500069C0000067C0000065C0000063C0000008
:1000600061C000005FC000005DC000005BC0000018
:1000700059C000007CC2000055C0000053C0000001
:1000800078C100004FC000004DC000004BC0000010
:1000900049C0000047C0000045C0000043C0000048
:1000A00041C000003FC000003DC000003BC0000058
:1000B00039C0000037C0000035C0000033C0000068
:1000C00031C000002FC000002DC000002BC0000078
:1000D00029C0000027C0000025C0000023C0000088
:1000E00021C0000011241FBECFEFD1E2DEBFCDBF83
:1000F00000E00CBF12E0A0E0B2E0ECECF3E100E0C5
:100100000BBF02C007900D92AC34B107D9F722E0C3
:10011000ACE4B2E001C01D92A438B207E1F709D304
:100120000C94E4096DCF87B1807F87B9459A4698D2
:1001300082E08A95F1F700C0479A92E09A95F1F72C
:1001400000C086B18295807F92E09A95F1F700C059
:10015000479895E09A95F1F70000479A92E09A95B2
:10016000F1F700C096B192E09A95F1F700C0479878
:1001700095E09A95F1F700008823F4F2459887B14D
:100180008F6087B90895282F22952F708F70611185
:1001900002C0469801C0469A92E09A95F1F700C0D5
:1001A000479A98B1907F922B98B995E09A95F1F77C
:1001B0000000479895E09A95F1F70000479A98B1AA
:1001C000907F892B88B985E08A95F1F700004798E0
:1001D00095E09A95F1F70000A6CF0895CF93C82F28
:1001E0002FEF86E791E0215080409040E1F700C07A
:1001F000000087B18F6087B93F9A3E9A3D9A88B1D7
:10020000807F88B947984598469800C000C0000094
:10021000479A419A25E02A95F1F70000479885E032
:100220008A95F1F700007FDF60E08C2F8C60ABDFF8
:1002300060E088E2A8DFCF910895CF93DF93EC01CF
:100240008881882331F0219661E09DDF89918111B9
:10025000FBCFDF91CF910895EF92FF920F931F9301
:10026000CF93DF9300D01F921F92CDB7DEB77B01F3
:10027000FE01319625E0DF011D922A95E9F70097EE
:1002800051F035962AE030E0B90156D78293862F97
:10029000972F0097C9F7BFEFEB16FB0669F489812A
:1002A00081111DC0FE01329600E010E00F5F1F4F6C
:1002B00081918823D9F30FC005E010E00E191F09C2
:1002C0000AC0F80181918F0161E0805D5CDF0E154D
:1002D0001F05B9F711C0053011051CF00DC000E075
:1002E00010E081E090E08C0F9D1F080F191F7E0128
:1002F00096E0E90EF11CE5CF0F900F900F900F9054
:100300000F90DF91CF911F910F91FF90EF90089583
:10031000883228F46111806460E0806834CF0895E9
:100320001F920F920FB60F9211248F939F9380917B
:100330006A0290916B02892B69F48FE085B981E0A4
:1003400090E090934F0280934E0290936B028093C3
:100350006A0208C08FE085B981E090E090937D0249
:1003600080937C029F918F910F900FBE0F901F90F2
:1003700018951F920F920FB60F9211240BB60F9281
:100380008F939F93EF93FF9381E090E090934D02C2
:1003900080934C02E1E7F0E080818D7F8083FF91C4
:1003A000EF919F918F910F900BBE0F900FBE0F900A
:1003B0001F90189584B5836084BD84B5806884BD22
:1003C00085B5836085BD86E687BD8FEF84B90895C6
:1003D000AC01E1E8F0E090819260908390819860B8
:1003E000908388EE93E09093890080938800109228
:1003F000850010928400B19A20E030E005C0B19BE6
:10040000FECFB19A2F5F3F4F241735071CF4B19BE5
:10041000F6CFF7CF08951F920F920FB60F921124C7
:100420000BB60F922F933F934F935F936F937F93EE
:100430008F939F93AF93BF93EF93FF9384E190E0EB
:10044000C7DF89B181E090E09093730280937202DC
:1004500089B184E190E0BCDFFF91EF91BF91AF9152
:100460009F918F917F916F915F914F913F912F91CC
:100470000F900BBE0F900FBE0F901F9018959C0110
:10048000E1E9F0E0908198609083309399002093A7
:1004900098001092950010929400C19AA1E7B0E0E4
:1004A0008C9182608C938081826080830895CF9349
:1004B000DF93EC0184E090E066D699838883FC01A9
:1004C00013821282DF91CF9108951F920F920FB67F
:1004D0000F9211240BB60F922F933F934F935F937C
:1004E0006F937F938F939F93AF93BF93EF93FF93FC
:1004F000EAE7F0E080818064808380E094E090937C
:100500005902809358028CE692E0D1DFFF91EF917F
:10051000BF91AF919F918F917F916F915F914F911B
:100520003F912F910F900BBE0F900FBE0F901F9019
:100530001895DB01ED91FC91309761F0DA018D9116
:100540009C911197938382838D919C91FB01918360
:1005500080830895DA012D913C911197FC0131833C
:1005600020838D919C91DB018D939C9308951F9224
:100570000F920FB60F9211240BB60F922F933F9349
:100580004F935F936F937F938F939F93AF93BF939B
:10059000EF93FF9320917800309179008091580279
:1005A000909159028217930740F0809178009091C2
:1005B000790090935902809358024B9B0CC0809114
:1005C0004E0290914F02892B31F4EAE7F0E08081EE
:1005D0008064808385C0809158029091590283394C
:1005E0009340B8F085E090E090936F0280936E02A4
:1005F000E0916C02F0916D0280916E0290916F0219
:1006000080834CE652E06AE572E082E692E091DF98
:1006100067C080915802909159028E3E9240F0F04E
:10062000809158029091590283399340B8F486E042
:1006300090E090936F0280936E02E0916C02F091D3
:100640006D0280916E0290916F0280834CE652E0C1
:100650006AE572E082E692E06CDF42C08091580267
:10066000909159028E3E9240F0F480915802909100
:1006700059028D329140B8F087E090E090936F027C
:1006800080936E02E0916C02F0916D0280916E0297
:1006900090916F0280834CE652E06AE572E082E658
:1006A00092E047DF1DC080915802909159028D322F
:1006B0009140B0F488E090E090936F0280936E02D6
:1006C000E0916C02F0916D0280916E0290916F0248
:1006D00080834CE652E06AE572E082E692E029DF30
:1006E000FF91EF91BF91AF919F918F917F916F910A
:1006F0005F914F913F912F910F900BBE0F900FBEC6
:100700000F901F901895FC0180819181DA018D93E3
:100710009C93A081B181109741F012968D919C918C
:10072000139791838083892B19F4FB011182108226
:100730000895E1E6F0E080E8808381E080838FEF38
:1007400087B984B981B980E780930A01F894E9E612
:10075000F0E080818260808380818C6080838081F2
:10076000806280838081806C80838DB38F608DBB3D
:10077000EAE7F0E080818068808380818860808300
:10078000ECE7F0E0808180648083789410925702D7
:100790001092560210926D0210926C0283E01EDDE0
:1007A00009DE60E081E0EFDC87E085B9109263024A
:1007B0001092620210925B0210925A02809109011B
:1007C0008823D4F50F2EF9E0EF2EFF24F394F02DBB
:1007D0000F2EF6E3AF2EF02D0F2EFEE2BF2EF02DE2
:1007E0000F2EFDE2CF2EF02D0F2EF5E3DF2EF02D94
:1007F000F701808188230CF4A2B884E190E0E8DD61
:10080000F701808188230CF4B2B884E190E0E0DD48
:10081000F701808188230CF4C2B884E190E0D8DD30
:10082000F701808188230CF4D2B884E190E0D0DD18
:10083000F70180818823E4F2CC24C394D12C0F2EBD
:10084000F4E16F2EF0E57F2EF02D0F2EFBE0EF2E62
:10085000FF24F394F02D0F2EF6E34F2EF02D0F2EE4
:10086000FEE25F2EF02D0F2EF8E3AF2EF8E1BF2E43
:10087000F02D6894882482F8912C80917C029091CC
:100880007D02019779F482E390E0A2DDD0924F02DD
:10089000C0924E02D0926B02C0926A0210927D0208
:1008A00010927C0280916A0290916B02019709F08C
:1008B00067C380917C0290917D02892B09F060C30F
:1008C00046E552E06AE572E082E692E01CDFE091E4
:1008D0005602F09157028081853071F410927902AE
:1008E0001092780280917402909175020196909313
:1008F00075028093740235C0863081F484E690E0FE
:1009000090937902809378028091600290916102C5
:100910000196909361028093600223C0873081F436
:1009200082E390E09093790280937802809168024C
:10093000909169020196909369028093680211C0B8
:10094000883079F486E990E0909379028093780278
:100950008091700290917102019690937102809340
:100960007002209178023091790280915E0290911C
:100970005F022817390729F4109265021092640269
:10098000A6C0809178029091790220915E02309108
:100990005F02821B930B9C0122F422273327281B22
:1009A000390B25363105B4F08091780290917902A7
:1009B00020915E0230915F02821B930B5AF41092D9
:1009C0001F0210921E0282E390E0909365028093D2
:1009D00064027DC0809178029091790220915E023C
:1009E00030915F02821B930B843691054CF5809108
:1009F00078029091790220915E0230915F02821B11
:100A0000930B2AF4D0921F02C0921E0204C01092CF
:100A10001F0210921E02809178029091790220911B
:100A20005E0230915F02821B930B9C0122F422270D
:100A30003327281B390B309365022093640247C08B
:100A4000809178029091790220915E0230915F024C
:100A5000821B930B84369105C9F4D0921F02C09279
:100A60001E02809178029091790220915E0230916D
:100A70005F02821B930B9C0122F422273327281B41
:100A8000390B309365022093640221C08091780273
:100A90009091790220915E0230915F02821B930B4C
:100AA00085369105A4F0D0921F02C0921E0280915B
:100AB000780290917902845691099C0122F42227B0
:100AC0003327281B390B30936502209364028091F1
:100AD000640290916502892B11F487E085B98091B9
:100AE0001E0290911F02019709F016C180916402C5
:100AF00090916502C817D9070CF0F7C00F2EF7E0E8
:100B00002F2EF02D6894332434F880917602909142
:100B10007702019690937702809376028091640227
:100B200090916502C29709F03FC0CA30D105B4F474
:100B3000F801EE0FFF1FE85FFD4F808191819093D8
:100B40001D0280931C020F5F1F4F80911C02909129
:100B50001D0290937B0280937A0264C0C932D10552
:100B6000B4F0F801EE0FFF1FE85FFD4F8081918127
:100B700090931D0280931C020150110980911C0268
:100B800090911D0290937B0280937A024BC0B092A9
:100B90001D02A0921C0280911C0290911D02909354
:100BA0007B0280937A023EC0CA30D105B4F4F801CA
:100BB000EE0FFF1FE85FFD4F8081918190931D0232
:100BC00080931C020F5F1F4F80911C0290911D02A9
:100BD00090937B0280937A0225C0CB35D105B4F087
:100BE000F801EE0FFF1FE85FFD4F80819181909328
:100BF0001D0280931C020150110980911C029091EA
:100C00001D0290937B0280937A020CC0B0921D0269
:100C1000A0921C0280911C0290911D0290937B0275
:100C200080937A0280916402909165028C1B9D0BE7
:100C30000A9709F425B8809176029091770205977A
:100C400021F4D0927702C0927602209761F0F701EA
:100C5000308280914C0290914D02892BD1F31092F9
:100C60004D0210924C02809176029091770201978A
:100C700039F442B880917A0290917B0200DC28C05E
:100C80008091760290917702029739F452B8809160
:100C90007A0290917B02F3DB1BC0809176029091E7
:100CA0007702039741F4FDE2F2B980917A029091C4
:100CB0007B02E5DB0DC0809176029091770204976C
:100CC00039F485E382B980917A0290917B02D7DB77
:100CD000219610924D0210924C02809164029091E4
:100CE0006502C817D9070CF410CF80917802909153
:100CF000790290935F0280935E0210926B021092D1
:100D00006A0210924F0210924E024B9B05C0EAE716
:100D1000F0E080818064808380911E0290911F02A8
:100D2000892B09F016C18091640290916502C81761
:100D3000D9070CF0F7C00F2EF7E02F2EF02D689496
:100D4000332434F88091640290916502C29709F0CF
:100D50003FC0CA30D105B4F4F801EE0FFF1FE85FC1
:100D6000FD4F8081918190931D0280931C020F5F43
:100D70001F4F80911C0290911D0290937B028093E3
:100D80007A0264C0C932D105B4F0F801EE0FFF1F3A
:100D9000E85FFD4F8081918190931D0280931C023A
:100DA0000150110980911C0290911D0290937B02C9
:100DB00080937A024BC0B0921D02A0921C028091D7
:100DC0001C0290911D0290937B0280937A023EC098
:100DD000CA30D105B4F4F801EE0FFF1FE85FFD4FF4
:100DE0008081918190931D0280931C020F5F1F4FA1
:100DF00080911C0290911D0290937B0280937A0255
:100E000025C0CB35D105B4F0F801EE0FFF1FE85F28
:100E1000FD4F8081918190931D0280931C020150AF
:100E2000110980911C0290911D0290937B02809386
:100E30007A020CC0B0921D02A0921C0280911C028A
:100E400090911D0290937B0280937A0280916402BC
:100E5000909165028C1B9D0B0A9709F425B880912F
:100E6000760290917702892B21F4909277028092FA
:100E70007602209761F0F701308280914C029091C8
:100E80004D02892BD1F310924D0210924C028091A9
:100E9000760290917702049741F4F5E3F2B98091DC
:100EA0007A0290917B02EBDA27C0809176029091D2
:100EB0007702039741F48DE282B980917A02909192
:100EC0007B02DDDA19C08091760290917702029759
:100ED00039F452B880917A0290917B02D0DA0CC03A
:100EE0008091760290917702019731F442B8809117
:100EF0007A0290917B02C3DA2196809176029091DA
:100F000077020197909377028093760210924D02B8
:100F100010924C028091640290916502C817D90723
:100F20000CF410CF809178029091790290935F0237
:100F300080935E0210926B0210926A0210924F022E
:100F400010924E024B9B05C0EAE7F0E0808180647E
:100F5000808370921D0260921C0210926B021092AC
:100F60006A028091720290917302019749F4809114
:100F700066029091670201969093670280936602E1
:100F80008091660290916702029709F076CC0F2E4D
:100F9000FFE03F2EF02D88E893E11ADA35B8F89497
:100FA00060E081E0F0D860E080E0B2D981E392E0D7
:100FB00044D961E080E0ACD98091740290917502CF
:100FC00062E070E049D961E083E0A2D980916002DB
:100FD0009091610262E070E03FD961E086E098D9CB
:100FE000809168029091690262E070E035D961E019
:100FF00089E08ED9809170029091710262E070E078
:101000002BD98091660290916702029709F4C3CFB1
:1010100034CCDC01ED91FC91309749F080E090E018
:1010200001960280F381E02D3097D1F7089580E09A
:1010300090E008951F920F920FB60F9211240BB6F5
:101040000F922F933F934F935F936F937F938F9361
:101050009F93AF93BF93EF93FF9384E190E0B8D950
:10106000489952C08091060290910702019709F0B9
:1010700040C08FE085B960E080E04AD98DE392E01E
:10108000DCD861E080E044D98091740290917502CF
:1010900062E070E0E1D861E083E03AD980916002DB
:1010A0009091610262E070E0D7D861E086E030D9CB
:1010B000809168029091690262E070E0CDD861E0B1
:1010C00089E026D9809170029091710262E070E00F
:1010D000C3D861E08CE01CD96AE572E082E692E058
:1010E00098DF62E070E0B8D8109207021092060212
:1010F0000BC060E081E047D881E090E09093070268
:101100008093060287E085B9489BFECF84E190E09A
:101110005FD9FF91EF91BF91AF919F918F917F9197
:101120006F915F914F913F912F910F900BBE0F9058
:101130000FBE0F901F90189597FB072E16F4009482
:1011400006D077FD08D00BD007FC05D03EF4909573
:1011500081959F4F0895709561957F4F0895AA1BC3
:10116000BB1B51E107C0AA1FBB1FA617B70710F092
:10117000A61BB70B881F991F5A95A9F780959095C4
:10118000BC01CD0108950F931F93CF93DF9382305D
:10119000910510F482E090E0E0918202F0918302E8
:1011A00020E030E0A0E0B0E0309719F140815181BB
:1011B0000281138148175907C8F08417950769F40D
:1011C000109731F012960C93129713961C9327C028
:1011D000009382021093830222C02115310519F079
:1011E0004217530718F49A01BD01EF01DF01F8011E
:1011F000DBCF21153105F9F0281B390B24303105DF
:1012000080F48A819B816115710521F0FB01938334
:10121000828304C09093830280938202FE013296FF
:1012200044C0FE01E20FF31F8193919322503109D4
:10123000398328833AC02091800230918102232B88
:1012400041F42091020230910302309381022093F5
:10125000800220910002309101022115310541F4F4
:101260002DB73EB74091040250910502241B350B67
:10127000E0918002F0918102E217F307A0F42E1BA7
:101280003F0B2817390778F0AC014E5F5F4F2417EA
:10129000350748F04E0F5F1F509381024093800244
:1012A0008193919302C0E0E0F0E0CF01DF91CF9114
:1012B0001F910F910895CF93DF93009709F481C098
:1012C000FC01329713821282A0918202B0918302B4
:1012D000109781F420813181820F931F2091800229
:1012E000309181022817390751F5F0938102E0937C
:1012F000800267C0ED0120E030E0CE17DF0740F448
:101300004A815B819E0141155105F1F0EA01F5CF5B
:10131000D383C28340815181840F951FC817D90799
:1013200059F488819981840F951F02969183808357
:101330008A819B81938382832115310529F4F0935F
:101340008302E09382023DC0E901FB83EA83499175
:101350005991C40FD51FEC17FD0761F4808191816D
:10136000840F951F0296E901998388838281938176
:101370009B838A83E0E0F0E012968D919C91139715
:10138000009719F0FD01DC01F7CF8D919C91119729
:101390009D012E5F3F4F820F931F2091800230915D
:1013A00081022817390769F4309729F410928302D3
:1013B0001092820202C013821282B0938102A09323
:0C13C0008002DF91CF910895F894FFCFD8
:1013CC000000840220000100204EBC4DC24CCE4ACD
:1013DC00E646104052359A29DC1E001914500100C3
:1013EC00206D6174657269616C2069730020202026
:1013FC0000424C20574820535420414C00424C2072
:0C140C00574820535420414C20505300FE
:00000001FF
